:100000000C9434000C9451000C9451000C94510049
:100010000C9451000C9451000C9451000C9451001C
:100020000C9451000C9451000C9451000C9453000A
:100030000C9451000C9451000C9451000C945100FC
:100040000C9451000C9451000C9451000C945100EC
:100050000C9451000C9451000C9451000C945100DC
:100060000C9451000C94510011241FBECFEFD8E026
:10007000DEBFCDBF13E0A0E0B1E0E0E9F1E002C0F7
:1000800005900D92AE3EB107D9F713E0AEEEB3E0A6
:1000900001C01D92AE3EB107E1F70E9465000C94CD
:1000A000C6000C9400001F920F920FB60F921124FD
:1000B0008F939F938AB190E289278AB99F918F91FC
:1000C0000F900FBE0F901F9018951F9380E090E047
:1000D00020E80FB6F89420936100809361000FBE72
:1000E00084B5826084BD84B5806184BD85B581603E
:1000F00085BD83E087BD8091810088608093810009
:100100008091810082608093810080916F00826085
:1001100080936F002091EC033091ED0348EC50E0A8
:1001200012E360ED77E02E5F3F4F82E0223C38071C
:1001300048F088EA91E6FA013197F1F70197D9F78B
:1001400020E030E0D901A050BF4FEC91F0E0EE0F7D
:10015000FF1FE054FC4F8081918190938900809330
:10016000880011968C91819FC00111247894FB0125
:100170003197F1F70197D9F7F894559A88EE93E003
:10018000FA013197F1F70197D9F7CDCFF894FFCF66
:1001900008040F0100010F0100010F040803000112
:1001A00008040F0100010F0100010F0408040F04EF
:1001B000100212020F0814021201000112010001C4
:1001C00010010001100100010F0100010F010001E9
:1001D0000D020B040D0212020F08080206020802AB
:1001E00009020B0209020B020D020F021202100299
:1001F0000F020D020B020902080206040D010001A4
:100200000D0100010D040F0410040F020D020B0478
:100210000D040F040D020B0209040B040D040B0264
:100220000902080810020F0100010F0100010D0171
:1002300000010D0100010B0100010B010001090289
:100240000F020D0100010D0100010B0100010B0166
:100250000001090100010901000108020B0200026E
:100260000B020D020F0808040F0100010F0100012D
:100270000F040803000108040F0100010F01000131
:100280000F0408040F04100212020F0814021201D6
:1002900000011201000110010001100100010F0115
:1002A00000010F0100010D020B040D0212020F08E4
:1002B00008020602080209020B0209020B020D02E3
:1002C0000F02120210020F020D020B0209020802B5
:1002D00006040D0100010D0100010D040F041004BE
:1002E0000F020D020B040D040F040D020B02090492
:1002F0000B040D040B020902080810020F01000193
:100300000F0100010D0100010D0100010B010001B1
:100310000B01000109020F020D0100010D01000196
:100320000B0100010B01000109010001090100019D
:100330000802080409020B020806000208080F0858
:1003400008080F0700010F061002120610020F081E
:1003500000081408120810080F080D060B020D06FD
:1003600012020F080008080810080F080D080B06F5
:10037000090208060902060800080B080908080611
:100380000D020B0809060802060609020804030408
:100390000404060408040104060401040404080417
:1003A0000304080401040804030408040404080402
:1003B0000604080414201206150214061202100680
:1003C0001402120610020F06120210060F020D0888
:1003D00000080106030204060602080609020606D2
:1003E00008020906060208060902080800081208A1
:1003F00011061402121010060F020D0610020F1043
:10040000120811061402121010060F020D06100237
:100410000F100B0609020B060D020F1010060F023B
:100420000D060B020F060D020B0609020D060B024C
:1004300009060B020D100F060D020B0609020D0630
:100440000B02090608020B0609020D06090208083C
:100450000008EC0597054605FB04B3046F0430045F
:10046000F303BB03850352032303F502CB02A3026C
:0E0470007D02590237021702F901DD01C102B7
:00000001FF
